:060000000A128A110C280F
:10000800FE00030EF1000A08F2000A128A11AC2859
:100018000A128A110F28F60183010A128A1165282B
:1000280001308316031788008901023083160313F1
:100038008500831203138501831603138601831237
:10004800031386018316031388018312031388019F
:10005800831603130F088F3940388F000F143F3071
:10006800831203139F05831603131F129F1683120F
:1000780003131F08C33904389F00831603139F1303
:10008800831203131F140330F300F30B49281030B5
:10009800831603138700831203138701F030940536
:1000A80014129416831603131417941776088312E0
:1000B800031393000C13831603130C178B170B17DA
:1000C80008000A128A1114200A128A1183120313D3
:1000D8009F186F28702871289F1485170430F50021
:1000E8003D30F400F40B7628F50B76287B28831234
:1000F800031385137608930083160313141C8528AD
:10010800862880288312031385170430F5003D30B4
:10011800F400F40B8D28F50B8D2892288312031315
:10012800851383160313141C9A289B289528831279
:100138000313130888000430F5003D30F400F40B75
:10014800A328F50BA328A8286A280A128A110C28C4
:10015800831203130C1FB128B228C0281F0CF0000B
:10016800700C0F39013A031DBA28BB28BF281E0896
:10017800F0007008F6000C1372088A00710E8300F4
:06018800FE0E7E0E0900D0
:08400000FF3FFF3FFF3FFF3FC0
:04400E00D420FF3F7C
:00000001FF
